{
    "contractName": "WEAPON",
    "abi": [
        {
            "inputs": [
                {
                    "internalType": "address",
                    "name": "vault",
                    "type": "address"
                },
                {
                    "internalType": "address",
                    "name": "multiSig",
                    "type": "address"
                }
            ],
            "stateMutability": "nonpayable",
            "type": "constructor"
        },
        {
            "anonymous": false,
            "inputs": [
                {
                    "indexed": true,
                    "internalType": "address",
                    "name": "staker",
                    "type": "address"
                },
                {
                    "indexed": false,
                    "internalType": "uint256",
                    "name": "oldStake",
                    "type": "uint256"
                },
                {
                    "indexed": false,
                    "internalType": "uint256",
                    "name": "newStake",
                    "type": "uint256"
                }
            ],
            "name": "Adjust",
            "type": "event"
        },
        {
            "anonymous": false,
            "inputs": [
                {
                    "indexed": true,
                    "internalType": "address",
                    "name": "owner",
                    "type": "address"
                },
                {
                    "indexed": true,
                    "internalType": "address",
                    "name": "spender",
                    "type": "address"
                },
                {
                    "indexed": false,
                    "internalType": "uint256",
                    "name": "value",
                    "type": "uint256"
                }
            ],
            "name": "Approval",
            "type": "event"
        },
        {
            "anonymous": false,
            "inputs": [
                {
                    "indexed": false,
                    "internalType": "uint256",
                    "name": "prevTax",
                    "type": "uint256"
                },
                {
                    "indexed": false,
                    "internalType": "uint256",
                    "name": "newTax",
                    "type": "uint256"
                }
            ],
            "name": "ChangeBuyTax",
            "type": "event"
        },
        {
            "anonymous": false,
            "inputs": [
                {
                    "indexed": false,
                    "internalType": "uint256",
                    "name": "prevRew",
                    "type": "uint256"
                },
                {
                    "indexed": false,
                    "internalType": "uint256",
                    "name": "newRew",
                    "type": "uint256"
                }
            ],
            "name": "ChangeRewards",
            "type": "event"
        },
        {
            "anonymous": false,
            "inputs": [
                {
                    "indexed": false,
                    "internalType": "uint256",
                    "name": "prevTax",
                    "type": "uint256"
                },
                {
                    "indexed": false,
                    "internalType": "uint256",
                    "name": "newTax",
                    "type": "uint256"
                }
            ],
            "name": "ChangeSellTax",
            "type": "event"
        },
        {
            "anonymous": false,
            "inputs": [
                {
                    "indexed": false,
                    "internalType": "uint256",
                    "name": "amount",
                    "type": "uint256"
                }
            ],
            "name": "FailsafeETHTransfer",
            "type": "event"
        },
        {
            "anonymous": false,
            "inputs": [
                {
                    "indexed": false,
                    "internalType": "uint256",
                    "name": "amount",
                    "type": "uint256"
                }
            ],
            "name": "FailsafeTokenSwap",
            "type": "event"
        },
        {
            "anonymous": false,
            "inputs": [
                {
                    "indexed": false,
                    "internalType": "uint256",
                    "name": "mintLockTime",
                    "type": "uint256"
                }
            ],
            "name": "FreezeMint",
            "type": "event"
        },
        {
            "anonymous": false,
            "inputs": [
                {
                    "indexed": false,
                    "internalType": "address",
                    "name": "isNowPool",
                    "type": "address"
                }
            ],
            "name": "SetPool",
            "type": "event"
        },
        {
            "anonymous": false,
            "inputs": [
                {
                    "indexed": false,
                    "internalType": "address",
                    "name": "stakingCon",
                    "type": "address"
                }
            ],
            "name": "SetStakingContract",
            "type": "event"
        },
        {
            "anonymous": false,
            "inputs": [
                {
                    "indexed": true,
                    "internalType": "address",
                    "name": "staker",
                    "type": "address"
                },
                {
                    "indexed": false,
                    "internalType": "uint256",
                    "name": "amount",
                    "type": "uint256"
                },
                {
                    "indexed": false,
                    "internalType": "uint256",
                    "name": "stakeTime",
                    "type": "uint256"
                },
                {
                    "indexed": false,
                    "internalType": "uint256",
                    "name": "stakeExpire",
                    "type": "uint256"
                }
            ],
            "name": "Stake",
            "type": "event"
        },
        {
            "anonymous": false,
            "inputs": [
                {
                    "indexed": false,
                    "internalType": "uint256",
                    "name": "mintLockTime",
                    "type": "uint256"
                }
            ],
            "name": "ThawMint",
            "type": "event"
        },
        {
            "anonymous": false,
            "inputs": [
                {
                    "indexed": false,
                    "internalType": "bool",
                    "name": "enabled",
                    "type": "bool"
                }
            ],
            "name": "ToggleStaking",
            "type": "event"
        },
        {
            "anonymous": false,
            "inputs": [
                {
                    "indexed": true,
                    "internalType": "address",
                    "name": "from",
                    "type": "address"
                },
                {
                    "indexed": true,
                    "internalType": "address",
                    "name": "to",
                    "type": "address"
                },
                {
                    "indexed": false,
                    "internalType": "uint256",
                    "name": "value",
                    "type": "uint256"
                }
            ],
            "name": "Transfer",
            "type": "event"
        },
        {
            "anonymous": false,
            "inputs": [
                {
                    "indexed": true,
                    "internalType": "address",
                    "name": "staker",
                    "type": "address"
                },
                {
                    "indexed": false,
                    "internalType": "uint256",
                    "name": "amount",
                    "type": "uint256"
                },
                {
                    "indexed": false,
                    "internalType": "uint256",
                    "name": "stakeAmountRemaining",
                    "type": "uint256"
                }
            ],
            "name": "Unstake",
            "type": "event"
        },
        {
            "stateMutability": "payable",
            "type": "fallback"
        },
        {
            "inputs": [
                {
                    "internalType": "address",
                    "name": "owner",
                    "type": "address"
                },
                {
                    "internalType": "address",
                    "name": "spender",
                    "type": "address"
                }
            ],
            "name": "allowance",
            "outputs": [
                {
                    "internalType": "uint256",
                    "name": "",
                    "type": "uint256"
                }
            ],
            "stateMutability": "view",
            "type": "function"
        },
        {
            "inputs": [
                {
                    "internalType": "address",
                    "name": "spender",
                    "type": "address"
                },
                {
                    "internalType": "uint256",
                    "name": "amount",
                    "type": "uint256"
                }
            ],
            "name": "approve",
            "outputs": [
                {
                    "internalType": "bool",
                    "name": "",
                    "type": "bool"
                }
            ],
            "stateMutability": "nonpayable",
            "type": "function"
        },
        {
            "inputs": [
                {
                    "internalType": "address",
                    "name": "account",
                    "type": "address"
                }
            ],
            "name": "balanceOf",
            "outputs": [
                {
                    "internalType": "uint256",
                    "name": "",
                    "type": "uint256"
                }
            ],
            "stateMutability": "view",
            "type": "function"
        },
        {
            "inputs": [],
            "name": "decimals",
            "outputs": [
                {
                    "internalType": "uint8",
                    "name": "",
                    "type": "uint8"
                }
            ],
            "stateMutability": "pure",
            "type": "function"
        },
        {
            "inputs": [],
            "name": "failsafeETHtransfer",
            "outputs": [],
            "stateMutability": "nonpayable",
            "type": "function"
        },
        {
            "inputs": [
                {
                    "internalType": "uint256",
                    "name": "amount",
                    "type": "uint256"
                }
            ],
            "name": "failsafeTokenSwap",
            "outputs": [],
            "stateMutability": "nonpayable",
            "type": "function"
        },
        {
            "inputs": [
                {
                    "internalType": "uint256",
                    "name": "timestamp",
                    "type": "uint256"
                }
            ],
            "name": "freezeMint",
            "outputs": [],
            "stateMutability": "nonpayable",
            "type": "function"
        },
        {
            "inputs": [
                {
                    "internalType": "address",
                    "name": "account",
                    "type": "address"
                }
            ],
            "name": "getStake",
            "outputs": [
                {
                    "internalType": "uint256",
                    "name": "",
                    "type": "uint256"
                },
                {
                    "internalType": "uint256",
                    "name": "",
                    "type": "uint256"
                },
                {
                    "internalType": "uint256",
                    "name": "",
                    "type": "uint256"
                }
            ],
            "stateMutability": "view",
            "type": "function"
        },
        {
            "inputs": [],
            "name": "getStakingContract",
            "outputs": [
                {
                    "internalType": "address",
                    "name": "",
                    "type": "address"
                }
            ],
            "stateMutability": "view",
            "type": "function"
        },
        {
            "inputs": [
                {
                    "internalType": "address",
                    "name": "addr",
                    "type": "address"
                }
            ],
            "name": "isPool",
            "outputs": [
                {
                    "internalType": "bool",
                    "name": "",
                    "type": "bool"
                }
            ],
            "stateMutability": "view",
            "type": "function"
        },
        {
            "inputs": [
                {
                    "internalType": "uint256",
                    "name": "amount",
                    "type": "uint256"
                },
                {
                    "internalType": "address",
                    "name": "recipient",
                    "type": "address"
                }
            ],
            "name": "mint",
            "outputs": [],
            "stateMutability": "nonpayable",
            "type": "function"
        },
        {
            "inputs": [],
            "name": "mintLockTime",
            "outputs": [
                {
                    "internalType": "uint256",
                    "name": "",
                    "type": "uint256"
                }
            ],
            "stateMutability": "view",
            "type": "function"
        },
        {
            "inputs": [],
            "name": "mintLocked",
            "outputs": [
                {
                    "internalType": "bool",
                    "name": "",
                    "type": "bool"
                }
            ],
            "stateMutability": "view",
            "type": "function"
        },
        {
            "inputs": [],
            "name": "name",
            "outputs": [
                {
                    "internalType": "string",
                    "name": "",
                    "type": "string"
                }
            ],
            "stateMutability": "pure",
            "type": "function"
        },
        {
            "inputs": [
                {
                    "internalType": "uint8",
                    "name": "newTax",
                    "type": "uint8"
                }
            ],
            "name": "setBuyTax",
            "outputs": [],
            "stateMutability": "nonpayable",
            "type": "function"
        },
        {
            "inputs": [
                {
                    "internalType": "address",
                    "name": "addr",
                    "type": "address"
                }
            ],
            "name": "setPool",
            "outputs": [],
            "stateMutability": "nonpayable",
            "type": "function"
        },
        {
            "inputs": [
                {
                    "internalType": "uint8",
                    "name": "newRewards",
                    "type": "uint8"
                }
            ],
            "name": "setRewards",
            "outputs": [],
            "stateMutability": "nonpayable",
            "type": "function"
        },
        {
            "inputs": [
                {
                    "internalType": "uint8",
                    "name": "newTax",
                    "type": "uint8"
                }
            ],
            "name": "setSellTax",
            "outputs": [],
            "stateMutability": "nonpayable",
            "type": "function"
        },
        {
            "inputs": [
                {
                    "internalType": "address",
                    "name": "addr",
                    "type": "address"
                }
            ],
            "name": "setStakingContract",
            "outputs": [],
            "stateMutability": "nonpayable",
            "type": "function"
        },
        {
            "inputs": [
                {
                    "internalType": "address",
                    "name": "account",
                    "type": "address"
                },
                {
                    "internalType": "uint256",
                    "name": "amount",
                    "type": "uint256"
                },
                {
                    "internalType": "uint256",
                    "name": "unstakeTime",
                    "type": "uint256"
                },
                {
                    "internalType": "bool",
                    "name": "isPlayer",
                    "type": "bool"
                },
                {
                    "internalType": "uint256",
                    "name": "adjustedStake",
                    "type": "uint256"
                }
            ],
            "name": "stake",
            "outputs": [],
            "stateMutability": "nonpayable",
            "type": "function"
        },
        {
            "inputs": [
                {
                    "internalType": "address",
                    "name": "account",
                    "type": "address"
                }
            ],
            "name": "stakedBalanceOf",
            "outputs": [
                {
                    "internalType": "uint256",
                    "name": "",
                    "type": "uint256"
                }
            ],
            "stateMutability": "view",
            "type": "function"
        },
        {
            "inputs": [],
            "name": "stakingEnabled",
            "outputs": [
                {
                    "internalType": "bool",
                    "name": "",
                    "type": "bool"
                }
            ],
            "stateMutability": "view",
            "type": "function"
        },
        {
            "inputs": [],
            "name": "symbol",
            "outputs": [
                {
                    "internalType": "string",
                    "name": "",
                    "type": "string"
                }
            ],
            "stateMutability": "pure",
            "type": "function"
        },
        {
            "inputs": [
                {
                    "internalType": "address",
                    "name": "account",
                    "type": "address"
                },
                {
                    "internalType": "uint256",
                    "name": "adjustedStake",
                    "type": "uint256"
                }
            ],
            "name": "sync",
            "outputs": [],
            "stateMutability": "nonpayable",
            "type": "function"
        },
        {
            "inputs": [],
            "name": "thawMint",
            "outputs": [],
            "stateMutability": "nonpayable",
            "type": "function"
        },
        {
            "inputs": [],
            "name": "toggleStaking",
            "outputs": [],
            "stateMutability": "nonpayable",
            "type": "function"
        },
        {
            "inputs": [],
            "name": "totalSupply",
            "outputs": [
                {
                    "internalType": "uint256",
                    "name": "",
                    "type": "uint256"
                }
            ],
            "stateMutability": "view",
            "type": "function"
        },
        {
            "inputs": [
                {
                    "internalType": "address",
                    "name": "recipient",
                    "type": "address"
                },
                {
                    "internalType": "uint256",
                    "name": "amount",
                    "type": "uint256"
                }
            ],
            "name": "transfer",
            "outputs": [
                {
                    "internalType": "bool",
                    "name": "",
                    "type": "bool"
                }
            ],
            "stateMutability": "nonpayable",
            "type": "function"
        },
        {
            "inputs": [
                {
                    "internalType": "address",
                    "name": "sender",
                    "type": "address"
                },
                {
                    "internalType": "address",
                    "name": "recipient",
                    "type": "address"
                },
                {
                    "internalType": "uint256",
                    "name": "amount",
                    "type": "uint256"
                }
            ],
            "name": "transferFrom",
            "outputs": [
                {
                    "internalType": "bool",
                    "name": "",
                    "type": "bool"
                }
            ],
            "stateMutability": "nonpayable",
            "type": "function"
        },
        {
            "inputs": [
                {
                    "internalType": "address",
                    "name": "account",
                    "type": "address"
                },
                {
                    "internalType": "uint256",
                    "name": "unstakeAmount",
                    "type": "uint256"
                },
                {
                    "internalType": "bool",
                    "name": "isPlayer",
                    "type": "bool"
                },
                {
                    "internalType": "uint256",
                    "name": "adjustedStake",
                    "type": "uint256"
                }
            ],
            "name": "unstake",
            "outputs": [],
            "stateMutability": "nonpayable",
            "type": "function"
        },
        {
            "inputs": [],
            "name": "version",
            "outputs": [
                {
                    "internalType": "string",
                    "name": "",
                    "type": "string"
                }
            ],
            "stateMutability": "pure",
            "type": "function"
        },
        {
            "stateMutability": "payable",
            "type": "receive"
        }
    ],
    "bytecode": "60e06040526000805462ffff001916620100001790556361f877ff600155662386f26fc100006008556009805462140000610a0060ff19909216600a1761ff0019169190911762ff000019161790553480156200005b57600080fd5b5060405162002d8738038062002d878339810160408190526200007e9162000172565b6001600160a01b038216158015906200009f57506001600160a01b03811615155b620000c75760405162461bcd60e51b8152600401620000be90620001a9565b60405180910390fd5b620000d162000151565b60601b6001600160601b03191660805260085460036000620000f262000151565b6001600160a01b03168152602081019190915260400160002055600a80546001600160a01b031916737a250d5630b4cf539739df2c5dacb4c659f2488d1790556001600160601b0319606092831b811660a052911b1660c052620001f9565b3390565b80516001600160a01b03811681146200016d57600080fd5b919050565b6000806040838503121562000185578182fd5b620001908362000155565b9150620001a06020840162000155565b90509250929050565b60208082526030908201527f24574541504f4e3a2063616e6e6f742061737369676e2070726976696c65676560408201526f20746f207a65726f206164647265737360801b606082015260800190565b60805160601c60a05160601c60c05160601c612b086200027f600039600081816105dd0152818161080b01528181610910015281816109ec01528181610b0501528181610c8601528181610d4b01528181610e8a01528181610f500152818161159d015261166701526000611efa015260008181611a260152611b060152612b086000f3fe6080604052600436106101dc5760003560e01c80637a76646011610102578063a2bad69211610095578063dd62ed3e11610064578063dd62ed3e14610525578063df3c3a3014610545578063e3ed39951461055a578063ef4fcafa1461057a576101e3565b8063a2bad692146104a5578063a9059cbb146104c5578063bb11c627146104e5578063d8fda58d14610505576101e3565b806394bf804d116100d157806394bf804d1461043b57806395d89b411461045b578063962b5df9146104705780639dd373b914610485576101e3565b80637a766460146103b55780638e68dce4146103e4578063938caa381461040657806393fea3f814610426576101e3565b8063313ce5671161017a57806354fd4d501161014957806354fd4d50146103405780635b16ebb7146103555780636081752b1461037557806370a0823114610395576101e3565b8063313ce567146102c95780633b8105b3146102eb5780634437152a1461030057806349abdc1414610320576101e3565b806316765391116101b6578063167653911461025257806318160ddd1461027f5780631cfff51b1461029457806323b872dd146102a9576101e3565b806306fdde03146101e5578063095ea7b3146102105780631023231c1461023d576101e3565b366101e357005b005b3480156101f157600080fd5b506101fa61059a565b60405161020791906121b5565b60405180910390f35b34801561021c57600080fd5b5061023061022b366004612077565b6105be565b60405161020791906121aa565b34801561024957600080fd5b506101e36105db565b34801561025e57600080fd5b5061027261026d366004611fc0565b6106fc565b6040516102079190612977565b34801561028b57600080fd5b5061027261071b565b3480156102a057600080fd5b50610230610721565b3480156102b557600080fd5b506102306102c4366004612037565b61072f565b3480156102d557600080fd5b506102de610804565b6040516102079190612a14565b3480156102f757600080fd5b506101e3610809565b34801561030c57600080fd5b506101e361031b366004611fc0565b61090e565b34801561032c57600080fd5b506101e361033b366004612172565b6109ea565b34801561034c57600080fd5b506101fa610aca565b34801561036157600080fd5b50610230610370366004611fc0565b610ae5565b34801561038157600080fd5b506101e3610390366004612172565b610b03565b3480156103a157600080fd5b506102726103b0366004611fc0565b610bd6565b3480156103c157600080fd5b506103d56103d0366004611fc0565b610bf1565b604051610207939291906129fe565b3480156103f057600080fd5b506103f9610c6e565b6040516102079190612196565b34801561041257600080fd5b506101e3610421366004612136565b610c84565b34801561043257600080fd5b50610272610d43565b34801561044757600080fd5b506101e361045636600461214e565b610d49565b34801561046757600080fd5b506101fa610e67565b34801561047c57600080fd5b506101e3610e88565b34801561049157600080fd5b506101e36104a0366004611fc0565b610f4e565b3480156104b157600080fd5b506101e36104c03660046120e7565b611020565b3480156104d157600080fd5b506102306104e0366004612077565b61132f565b3480156104f157600080fd5b506101e36105003660046120a2565b611343565b34801561051157600080fd5b506101e3610520366004612136565b61159b565b34801561053157600080fd5b50610272610540366004611fff565b61162b565b34801561055157600080fd5b50610230611656565b34801561056657600080fd5b506101e3610575366004612172565b611665565b34801561058657600080fd5b506101e3610595366004612077565b61176b565b60408051808201909152600a81526926b2b3b0bbb2b0b837b760b11b602082015290565b60006105d26105cb611840565b8484611844565b50600192915050565b7f00000000000000000000000000000000000000000000000000000000000000006001600160a01b031661060d611840565b6001600160a01b03161461063c5760405162461bcd60e51b81526004016106339061266f565b60405180910390fd5b7f1f64c685e757b0c83e841acaf1a5ce47a4fb3aa43f46bdc8217f4a7a5e8d7ed84760405161066b9190612977565b60405180910390a160008061067e611840565b6001600160a01b03164760405161069490612193565b60006040518083038185875af1925050503d80600081146106d1576040519150601f19603f3d011682016040523d82523d6000602084013e6106d6565b606091505b5091509150816106f85760405162461bcd60e51b8152600401610633906123b0565b5050565b6001600160a01b0381166000908152600460205260409020545b919050565b60085490565b600054610100900460ff1681565b6001600160a01b0383166000908152600760205260408120829082610752611840565b6001600160a01b03166001600160a01b031681526020019081526020016000205410156107915760405162461bcd60e51b815260040161063390612627565b61079c8484846118f8565b6107fa846107a8611840565b6001600160a01b038716600090815260076020526040812086916107ca611840565b6001600160a01b03166001600160a01b03168152602001908152602001600020546107f59190612a8d565b611844565b5060019392505050565b600990565b7f00000000000000000000000000000000000000000000000000000000000000006001600160a01b031661083b611840565b6001600160a01b0316146108615760405162461bcd60e51b81526004016106339061266f565b600954630100000090046001600160a01b03166108905760405162461bcd60e51b8152600401610633906128ea565b60005460ff610100909104161515600114156108b6576000805461ff00191690556108c6565b6000805461ff0019166101001790555b7f39c3c37112aa9f1b74ce99befb140716c3f946730c4b9d9f4939c003ce446c77600060019054906101000a900460ff1660405161090491906121aa565b60405180910390a1565b7f00000000000000000000000000000000000000000000000000000000000000006001600160a01b0316610940611840565b6001600160a01b0316146109665760405162461bcd60e51b81526004016106339061266f565b6001600160a01b03811661098c5760405162461bcd60e51b81526004016106339061269e565b6001600160a01b03811660009081526002602052604090819020805460ff19166001179055517f67816c9262630d6052ccaada1732fda377aa9e9abb3bc91cfd887a016a18a43a906109df908390612196565b60405180910390a150565b7f00000000000000000000000000000000000000000000000000000000000000006001600160a01b0316610a1c611840565b6001600160a01b031614610a425760405162461bcd60e51b81526004016106339061266f565b600a8160ff161115610a665760405162461bcd60e51b815260040161063390612768565b7f6d9880198c1159f52707b61a6882da80275b14b90bd9e5f332b3ed9d39eeb42c600960019054906101000a900460ff1682604051610aa6929190612a22565b60405180910390a16009805460ff9092166101000261ff0019909216919091179055565b6040805180820190915260018152601960f91b602082015290565b6001600160a01b031660009081526002602052604090205460ff1690565b7f00000000000000000000000000000000000000000000000000000000000000006001600160a01b0316610b35611840565b6001600160a01b031614610b5b5760405162461bcd60e51b81526004016106339061266f565b600a8160ff161115610b7f5760405162461bcd60e51b815260040161063390612768565b6009546040517fae004c20b38d4d71a0cf8304ec672eacfd34dedc962fa7e5e82d9e55ac7444c091610bb89160ff909116908490612a22565b60405180910390a16009805460ff191660ff92909216919091179055565b6001600160a01b031660009081526003602052604090205490565b6000805481908190610100900460ff168015610c2457506001600160a01b03841660009081526004602052604090205415155b15610c5d575050506001600160a01b03811660009081526004602090815260408083205460068352818420546005909352922054610c67565b5060009150819050805b9193909250565b600954630100000090046001600160a01b031690565b7f00000000000000000000000000000000000000000000000000000000000000006001600160a01b0316610cb6611840565b6001600160a01b031614610cdc5760405162461bcd60e51b81526004016106339061266f565b6001548111610cfd5760405162461bcd60e51b81526004016106339061230d565b6000805462ff000019166201000017905560018190556040517f22d94bc7514daebac7d4ba58d9c133477215e3ca7d28fdc673301c1473345ea2906109df908390612977565b60015481565b7f00000000000000000000000000000000000000000000000000000000000000006001600160a01b0316610d7b611840565b6001600160a01b031614610da15760405162461bcd60e51b81526004016106339061266f565b60015442118015610dbb575060005462010000900460ff16155b610dd75760405162461bcd60e51b8152600401610633906124b9565b81600854610de59190612a36565b6008556001600160a01b038116600090815260036020526040902054610e0c908390612a36565b6001600160a01b0382166000818152600360205260408082209390935591519091907fddf252ad1be2c89b69c2b068fc378daa952ba7f163c4a11628f55a4df523b3ef90610e5b908690612977565b60405180910390a35050565b604080518082019091526007815266122ba2a0a827a760c91b602082015290565b7f00000000000000000000000000000000000000000000000000000000000000006001600160a01b0316610eba611840565b6001600160a01b031614610ee05760405162461bcd60e51b81526004016106339061266f565b600154421015610f025760405162461bcd60e51b8152600401610633906124b9565b6000805462ff000019169055610f1b4262015180612a36565b60018190556040517f69f59bb2e123082e696cc484745189309eda69163011dce939f71d19c714b3dc9161090491612977565b7f00000000000000000000000000000000000000000000000000000000000000006001600160a01b0316610f80611840565b6001600160a01b031614610fa65760405162461bcd60e51b81526004016106339061266f565b6001600160a01b038116610fcc5760405162461bcd60e51b8152600401610633906125ac565b600980546301000000600160b81b03191663010000006001600160a01b038416021790556040517f77da29da4ba6bf0a49e709076c8fc946886ea566b52a1429ac484d59f879be37906109df908390612196565b600954630100000090046001600160a01b031661103b611840565b6001600160a01b0316146110615760405162461bcd60e51b81526004016106339061292b565b6001600160a01b0385166110875760405162461bcd60e51b815260040161063390612477565b600054610100900460ff166110ae5760405162461bcd60e51b8152600401610633906124e8565b8115611141576001600160a01b0385166000908152600460205260409020548114611141576001600160a01b038516600081815260046020526040908190205490517f5cb6b338abc32929561a7c976045b80ae6af37304b361e7d9f5076e6cb4569e79161111d9185906129f0565b60405180910390a26001600160a01b03851660009081526004602052604090208190555b61114e4262015054612a36565b831161116c5760405162461bcd60e51b8152600401610633906123de565b6001600160a01b0385166000908152600560205260409020548310156111a45760405162461bcd60e51b81526004016106339061224b565b6001600160a01b0385166000908152600360205260409020548411156111dc5760405162461bcd60e51b81526004016106339061285f565b6001600160a01b03851660009081526004602052604090205461121957600084116112195760405162461bcd60e51b815260040161063390612294565b6001600160a01b03851660009081526003602052604090205461123d908590612a8d565b6001600160a01b03808716600090815260036020526040808220939093556009546301000000900490911681522054611277908590612a36565b6009546001600160a01b03630100000090910481166000908152600360209081526040808320949094559188168152600490915220546112b8908590612a36565b6001600160a01b03861660008181526004602090815260408083209490945560058152838220879055600690528290204290819055915190917ff556991011e831bcfac4f406d547e5e32cdd98267efab83935230d5f8d02c4469161132091889188906129fe565b60405180910390a25050505050565b60006105d261133c611840565b84846118f8565b600954630100000090046001600160a01b031661135e611840565b6001600160a01b0316146113845760405162461bcd60e51b815260040161063390612429565b6001600160a01b0384166113aa5760405162461bcd60e51b8152600401610633906125e3565b600083116113ca5760405162461bcd60e51b8152600401610633906128a7565b811561145d576001600160a01b038416600090815260046020526040902054811461145d576001600160a01b038416600081815260046020526040908190205490517f5cb6b338abc32929561a7c976045b80ae6af37304b361e7d9f5076e6cb4569e7916114399185906129f0565b60405180910390a26001600160a01b03841660009081526004602052604090208190555b6001600160a01b0384166000908152600460205260409020548311156114955760405162461bcd60e51b81526004016106339061252e565b6001600160a01b0384166000908152600460205260409020546114b9908490612a8d565b6001600160a01b0385166000908152600460209081526040808320939093556003905220546114e9908490612a36565b6001600160a01b03808616600090815260036020526040808220939093556009546301000000900490911681522054611523908490612a8d565b6009546001600160a01b0363010000009091048116600090815260036020908152604080832094909455918716808252600490925282902054915190917ff960dbf9e5d0682f7a298ed974e33a28b4464914b7a2bfac12ae419a9afeb2809161158d9187916129f0565b60405180910390a250505050565b7f00000000000000000000000000000000000000000000000000000000000000006001600160a01b03166115cd611840565b6001600160a01b0316146115f35760405162461bcd60e51b81526004016106339061266f565b6115fc81611cec565b7f8ae3c994b30b13928ab97e09c40c6723fd78cb4c761449737ecc51cb1f91d877816040516109df9190612977565b6001600160a01b03918216600090815260076020908152604080832093909416825291909152205490565b60005462010000900460ff1681565b7f00000000000000000000000000000000000000000000000000000000000000006001600160a01b0316611697611840565b6001600160a01b0316146116bd5760405162461bcd60e51b81526004016106339061266f565b60148160ff1610156116e15760405162461bcd60e51b815260040161063390612379565b60648160ff1611156117055760405162461bcd60e51b815260040161063390612828565b7f717d38a0af5ed15f7369104a29a63331d40ff3543f1dbc8ad39b22689f88b517600960029054906101000a900460ff1682604051611745929190612a22565b60405180910390a16009805460ff909216620100000262ff000019909216919091179055565b600954630100000090046001600160a01b0316611786611840565b6001600160a01b0316146117ac5760405162461bcd60e51b81526004016106339061266f565b6001600160a01b0382166117d25760405162461bcd60e51b8152600401610633906126e2565b6001600160a01b038216600081815260046020526040908190205490517f5cb6b338abc32929561a7c976045b80ae6af37304b361e7d9f5076e6cb4569e79161181c9185906129f0565b60405180910390a26001600160a01b03909116600090815260046020526040902055565b3390565b6001600160a01b03831661186a5760405162461bcd60e51b81526004016106339061279f565b6001600160a01b0382166118905760405162461bcd60e51b8152600401610633906122cb565b6001600160a01b0380841660008181526007602090815260408083209487168084529490915290819020849055517f8c5be1e5ebec7d5bd14f71427d1e84f3dd0314c0f7b2291e5b200ac8c7c3b925906118eb908590612977565b60405180910390a3505050565b6001600160a01b03831661191e5760405162461bcd60e51b815260040161063390612723565b6001600160a01b0382166119445760405162461bcd60e51b815260040161063390612208565b6001600160a01b03831660009081526003602052604090205481111561197c5760405162461bcd60e51b815260040161063390612575565b6000811161199c5760405162461bcd60e51b815260040161063390612342565b6001600160a01b03831660009081526002602052604090205460ff1680156119dc57506001600160a01b03821660009081526002602052604090205460ff165b156119f95760405162461bcd60e51b8152600401610633906127e3565b6001600160a01b03831660009081526002602052604081205482919060ff1615156001148015611a5b57507f00000000000000000000000000000000000000000000000000000000000000006001600160a01b0316846001600160a01b031614155b8015611a8457506001600160a01b038416737a250d5630b4cf539739df2c5dacb4c659f2488d14155b15611adc57600954606490611a9c9060ff1685612a6e565b611aa69190612a4e565b9050611ab28184612a8d565b30600090815260036020526040812080549294508392909190611ad6908490612a36565b90915550505b6001600160a01b03841660009081526002602052604090205460ff1615156001148015611b3b57507f00000000000000000000000000000000000000000000000000000000000000006001600160a01b0316856001600160a01b031614155b8015611b6457506001600160a01b038516737a250d5630b4cf539739df2c5dacb4c659f2488d14155b15611c3e57600954606490611b8190610100900460ff1685612a6e565b611b8b9190612a4e565b9050611b978184612a8d565b30600090815260036020526040812080549294508392909190611bbb908490612a36565b90915550503060009081526003602052604090205464174876e800108015611be6575060005460ff16155b15611c3e57306000908152600360205260409020546064611c08856028612a6e565b611c129190612a4e565b811115611c33576064611c26856028612a6e565b611c309190612a4e565b90505b611c3c81611cec565b505b6001600160a01b03841660009081526003602052604081208054849290611c66908490612a36565b90915550506001600160a01b03851660009081526003602052604081208054859290611c93908490612a8d565b92505081905550836001600160a01b0316856001600160a01b03167fddf252ad1be2c89b69c2b068fc378daa952ba7f163c4a11628f55a4df523b3ef85604051611cdd9190612977565b60405180910390a35050505050565b6000805460ff1916600117815560408051600280825260608201835290916020830190803683370190505090503081600081518110611d3b57634e487b7160e01b600052603260045260246000fd5b6001600160a01b03928316602091820292909201810191909152600a54604080516315ab88c960e31b81529051919093169263ad5c4648926004808301939192829003018186803b158015611d8f57600080fd5b505afa158015611da3573d6000803e3d6000fd5b505050506040513d601f19601f82011682018060405250810190611dc79190611fe3565b81600181518110611de857634e487b7160e01b600052603260045260246000fd5b60200260200101906001600160a01b031690816001600160a01b031681525050611e2730737a250d5630b4cf539739df2c5dacb4c659f2488d84611844565b600a5460405163791ac94760e01b81526001600160a01b039091169063791ac94790611e60908590600090869030904290600401612980565b600060405180830381600087803b158015611e7a57600080fd5b505af1158015611e8e573d6000803e3d6000fd5b505050506000471115611f1e57600054610100900460ff1615611ef457600954600090606490611ec79062010000900460ff1647612a6e565b611ed19190612a4e565b9050611ef281600960039054906101000a90046001600160a01b0316611f2c565b505b611f1e477f0000000000000000000000000000000000000000000000000000000000000000611f2c565b50506000805460ff19169055565b600080826001600160a01b031684604051611f4690612193565b60006040518083038185875af1925050503d8060008114611f83576040519150601f19603f3d011682016040523d82523d6000602084013e611f88565b606091505b509150915081611faa5760405162461bcd60e51b8152600401610633906123b0565b50505050565b8035801515811461071657600080fd5b600060208284031215611fd1578081fd5b8135611fdc81612aba565b9392505050565b600060208284031215611ff4578081fd5b8151611fdc81612aba565b60008060408385031215612011578081fd5b823561201c81612aba565b9150602083013561202c81612aba565b809150509250929050565b60008060006060848603121561204b578081fd5b833561205681612aba565b9250602084013561206681612aba565b929592945050506040919091013590565b60008060408385031215612089578182fd5b823561209481612aba565b946020939093013593505050565b600080600080608085870312156120b7578081fd5b84356120c281612aba565b9350602085013592506120d760408601611fb0565b9396929550929360600135925050565b600080600080600060a086880312156120fe578081fd5b853561210981612aba565b9450602086013593506040860135925061212560608701611fb0565b949793965091946080013592915050565b600060208284031215612147578081fd5b5035919050565b60008060408385031215612160578182fd5b82359150602083013561202c81612aba565b600060208284031215612183578081fd5b813560ff81168114611fdc578182fd5b90565b6001600160a01b0391909116815260200190565b901515815260200190565b6000602080835283518082850152825b818110156121e1578581018301518582016040015282016121c5565b818111156121f25783604083870101525b50601f01601f1916929092016040019392505050565b60208082526023908201527f45524332303a207472616e7366657220746f20746865207a65726f206164647260408201526265737360e81b606082015260800190565b60208082526029908201527f24574541504f4e3a206e6577207374616b652074696d652063616e6e6f742062604082015268329039b437b93a32b960b91b606082015260800190565b6020808252601e908201527f24574541504f4e3a2063616e6e6f74207374616b65203020746f6b656e730000604082015260600190565b60208082526022908201527f45524332303a20617070726f766520746f20746865207a65726f206164647265604082015261737360f01b606082015260800190565b6020808252818101527f24574541504f4e3a2063616e6e6f7420726564756365206c6f636b2074696d65604082015260600190565b6020808252601d908201527f24574541504f4e3a2063616e6e6f74207472616e73666572207a65726f000000604082015260600190565b6020808252601c908201527f24574541504f4e3a2072657761726473206d696e696d756d2032302500000000604082015260600190565b6020808252601490820152732330b4b632b2103a379039b2b7321022ba3432b960611b604082015260600190565b6020808252602b908201527f24574541504f4e3a206d696e696d756d207374616b652074696d65203233206860408201526a37bab939901a9a9036b4b760a91b606082015260800190565b6020808252602e908201527f24574541504f4e3a206d75737420756e7374616b65207468726f75676820737460408201526d185ada5b99c818dbdb9d1c9858dd60921b606082015260800190565b60208082526022908201527f24574541504f4e3a2063616e6e6f74207374616b65207a65726f206164647265604082015261737360f01b606082015260800190565b602080825260159082015274122ba2a0a827a71d1039ba34b63610333937bd32b760591b604082015260600190565b60208082526026908201527f24574541504f4e3a207374616b696e672063757272656e746c79206e6f7420656040820152651b98589b195960d21b606082015260800190565b60208082526027908201527f24574541504f4e3a20756e7374616b652065786365656473207374616b65642060408201526662616c616e636560c81b606082015260800190565b6020808252601f908201527f45524332303a207472616e7366657220657863656564732062616c616e636500604082015260600190565b6020808252601f908201527f24574541504f4e3a2063616e6e6f74206265207a65726f206164647265737300604082015260600190565b60208082526024908201527f24574541504f4e3a2063616e6e6f7420756e7374616b65207a65726f206164646040820152637265737360e01b606082015260800190565b60208082526028908201527f45524332303a207472616e7366657220616d6f756e74206578636565647320616040820152676c6c6f77616e636560c01b606082015260800190565b6020808252601590820152740915d1505413d38e881d5b985d5d1a1bdc9a5e9959605a1b604082015260600190565b60208082526024908201527f24574541504f4e3a207a65726f20616464726573732063616e6e6f74206265206040820152631c1bdbdb60e21b606082015260800190565b60208082526021908201527f24574541504f4e3a2063616e6e6f742073796e63207a65726f206164647265736040820152607360f81b606082015260800190565b60208082526025908201527f45524332303a207472616e736665722066726f6d20746865207a65726f206164604082015264647265737360d81b606082015260800190565b6020808252601e908201527f24574541504f4e3a207461782063616e6e6f7420657863656564203130250000604082015260600190565b60208082526024908201527f45524332303a20617070726f76652066726f6d20746865207a65726f206164646040820152637265737360e01b606082015260800190565b60208082526025908201527f24574541504f4e3a2063616e6e6f74207472616e7366657220706f6f6c20746f604082015264081c1bdbdb60da1b606082015260800190565b6020808252601d908201527f24574541504f4e3a2072657761726473206d6178696d756d2031303025000000604082015260600190565b60208082526028908201527f24574541504f4e3a207374616b65206578636565647320617661696c61626c656040820152672062616c616e636560c01b606082015260800190565b60208082526023908201527f24574541504f4e3a2063616e6e6f7420756e7374616b65207a65726f20746f6b604082015262656e7360e81b606082015260800190565b60208082526021908201527f24574541504f4e3a207374616b696e6720636f6e7472616374206e6f742073656040820152601d60fa1b606082015260800190565b6020808252602c908201527f24574541504f4e3a206d757374207374616b65207468726f756768207374616b60408201526b1a5b99c818dbdb9d1c9858dd60a21b606082015260800190565b90815260200190565b600060a082018783526020878185015260a0604085015281875180845260c0860191508289019350845b818110156129cf5784516001600160a01b0316835293830193918301916001016129aa565b50506001600160a01b03969096166060850152505050608001529392505050565b918252602082015260400190565b9283526020830191909152604082015260600190565b60ff91909116815260200190565b60ff92831681529116602082015260400190565b60008219821115612a4957612a49612aa4565b500190565b600082612a6957634e487b7160e01b81526012600452602481fd5b500490565b6000816000190483118215151615612a8857612a88612aa4565b500290565b600082821015612a9f57612a9f612aa4565b500390565b634e487b7160e01b600052601160045260246000fd5b6001600160a01b0381168114612acf57600080fd5b5056fea2646970667358221220e3bb24723cd8e40d92c5605101352cfdaba6ea1d05d278ba2a37dc63def5cc7664736f6c63430008010033",
    "sourcePath": "c:/Users/JustSomeTool/Documents/GitHub/mw-staking-sol/mw2.sol",
    "compiler": {
        "name": "solc",
        "version": "0.8.1+commit.df193b15"
    },
    "functionHashes": {
        "allowance(address,address)": "dd62ed3e",
        "approve(address,uint256)": "095ea7b3",
        "balanceOf(address)": "70a08231",
        "decimals()": "313ce567",
        "failsafeETHtransfer()": "1023231c",
        "failsafeTokenSwap(uint256)": "d8fda58d",
        "freezeMint(uint256)": "938caa38",
        "getStake(address)": "7a766460",
        "getStakingContract()": "8e68dce4",
        "isPool(address)": "5b16ebb7",
        "mint(uint256,address)": "94bf804d",
        "mintLockTime()": "93fea3f8",
        "mintLocked()": "df3c3a30",
        "name()": "06fdde03",
        "setBuyTax(uint8)": "6081752b",
        "setPool(address)": "4437152a",
        "setRewards(uint8)": "e3ed3995",
        "setSellTax(uint8)": "49abdc14",
        "setStakingContract(address)": "9dd373b9",
        "stake(address,uint256,uint256,bool,uint256)": "a2bad692",
        "stakedBalanceOf(address)": "16765391",
        "stakingEnabled()": "1cfff51b",
        "symbol()": "95d89b41",
        "sync(address,uint256)": "ef4fcafa",
        "thawMint()": "962b5df9",
        "toggleStaking()": "3b8105b3",
        "totalSupply()": "18160ddd",
        "transfer(address,uint256)": "a9059cbb",
        "transferFrom(address,address,uint256)": "23b872dd",
        "unstake(address,uint256,bool,uint256)": "bb11c627",
        "version()": "54fd4d50"
    },
    "gasEstimates": {
        "creation": {
            "codeDepositCost": "2203200",
            "executionCost": "infinite",
            "totalCost": "infinite"
        },
        "external": {
            "": "198",
            "allowance(address,address)": "infinite",
            "approve(address,uint256)": "22646",
            "balanceOf(address)": "1375",
            "decimals()": "286",
            "failsafeETHtransfer()": "infinite",
            "failsafeTokenSwap(uint256)": "infinite",
            "freezeMint(uint256)": "infinite",
            "getStake(address)": "4879",
            "getStakingContract()": "1149",
            "isPool(address)": "1343",
            "mint(uint256,address)": "infinite",
            "mintLockTime()": "1140",
            "mintLocked()": "1117",
            "name()": "infinite",
            "setBuyTax(uint8)": "infinite",
            "setPool(address)": "infinite",
            "setRewards(uint8)": "infinite",
            "setSellTax(uint8)": "infinite",
            "setStakingContract(address)": "infinite",
            "stake(address,uint256,uint256,bool,uint256)": "infinite",
            "stakedBalanceOf(address)": "1319",
            "stakingEnabled()": "1141",
            "symbol()": "infinite",
            "sync(address,uint256)": "24086",
            "thawMint()": "infinite",
            "toggleStaking()": "infinite",
            "totalSupply()": "1096",
            "transfer(address,uint256)": "infinite",
            "transferFrom(address,address,uint256)": "infinite",
            "unstake(address,uint256,bool,uint256)": "infinite",
            "version()": "infinite"
        },
        "internal": {
            "_approve(address,address,uint256)": "infinite",
            "_tokensToETH(uint256)": "infinite",
            "_transfer(address,address,uint256)": "infinite",
            "_transferETH(uint256,address payable)": "infinite"
        }
    }
}